:0300000002000EED
:0C000E00787FE4F6D8FD758107020055EC
:1000FF001200031200EED2AF12010F12009A80F815
:09011F0042000100004100000053
:05000300C293C294222B
:10010F00900000E07005C293C29422D293D2942241
:10009A00900003E06034E4F0900002E004F070069F
:1000AA00900001E004F0C3900002E094F490000193
:1000BA00E094014015E4F0A3F0900000E070047FA2
:0B00CA000180027F00900000EFF02298
:04012800410003008F
:1000EE005389F0438901758CFC758A66D28CD2A92E
:0100FE0022DF
:03000B000200D51B
:1000D500C0E0C083C082758CFC758A66900003748D
:0900E50001F0D082D083D0E0329A
:10001A000200FFE493A3F8E493A34003F68001F2FD
:10002A0008DFF48029E493A3F85407240CC8C333E7
:10003A00C4540F4420C8834004F456800146F6DFB6
:10004A00E4800B010204081020408090011FE47E26
:10005A00019360BCA3FF543F30E509541FFEE493AB
:10006A00A360010ECF54C025E060A840B8E493A372
:10007A00FAE493A3F8E493A3C8C582C8CAC583CA9D
:10008A00F0A3C8C582C8CAC583CADFE9DEE780BE55
:01012C0000D2
:00000001FF
